{
  "contractName": "Client",
  "abi": [
    {
      "inputs": [],
      "payable": false,
      "stateMutability": "nonpayable",
      "type": "constructor"
    },
    {
      "constant": false,
      "inputs": [
        {
          "name": "_c_id",
          "type": "string"
        },
        {
          "name": "_c_pass",
          "type": "string"
        },
        {
          "name": "_c_cpass",
          "type": "string"
        },
        {
          "name": "_pan",
          "type": "string"
        },
        {
          "name": "_aadhar",
          "type": "string"
        },
        {
          "name": "_caste",
          "type": "bool"
        },
        {
          "name": "_name",
          "type": "string"
        },
        {
          "name": "_email",
          "type": "string"
        },
        {
          "name": "_phno",
          "type": "uint64"
        }
      ],
      "name": "addNewUser",
      "outputs": [
        {
          "name": "",
          "type": "bool"
        }
      ],
      "payable": true,
      "stateMutability": "payable",
      "type": "function"
    },
    {
      "constant": false,
      "inputs": [
        {
          "name": "_id",
          "type": "uint256"
        }
      ],
      "name": "registerLand",
      "outputs": [
        {
          "name": "",
          "type": "bool"
        }
      ],
      "payable": true,
      "stateMutability": "payable",
      "type": "function"
    },
    {
      "constant": false,
      "inputs": [],
      "name": "sellLand",
      "outputs": [
        {
          "name": "",
          "type": "bool"
        }
      ],
      "payable": true,
      "stateMutability": "payable",
      "type": "function"
    },
    {
      "constant": false,
      "inputs": [],
      "name": "buyLand",
      "outputs": [
        {
          "name": "",
          "type": "bool"
        }
      ],
      "payable": true,
      "stateMutability": "payable",
      "type": "function"
    },
    {
      "constant": false,
      "inputs": [],
      "name": "checkLiable",
      "outputs": [
        {
          "name": "",
          "type": "bool"
        }
      ],
      "payable": true,
      "stateMutability": "payable",
      "type": "function"
    },
    {
      "constant": true,
      "inputs": [],
      "name": "uploadDocd1",
      "outputs": [
        {
          "name": "",
          "type": "bool"
        }
      ],
      "payable": false,
      "stateMutability": "pure",
      "type": "function"
    },
    {
      "constant": true,
      "inputs": [],
      "name": "uploadDocd2",
      "outputs": [
        {
          "name": "",
          "type": "bool"
        }
      ],
      "payable": false,
      "stateMutability": "pure",
      "type": "function"
    },
    {
      "constant": true,
      "inputs": [],
      "name": "uploadDocd3",
      "outputs": [
        {
          "name": "",
          "type": "bool"
        }
      ],
      "payable": false,
      "stateMutability": "pure",
      "type": "function"
    },
    {
      "constant": true,
      "inputs": [],
      "name": "uploadDocd4",
      "outputs": [
        {
          "name": "",
          "type": "bool"
        }
      ],
      "payable": false,
      "stateMutability": "pure",
      "type": "function"
    },
    {
      "constant": false,
      "inputs": [],
      "name": "Auth1",
      "outputs": [
        {
          "name": "",
          "type": "bool"
        }
      ],
      "payable": true,
      "stateMutability": "payable",
      "type": "function"
    },
    {
      "constant": false,
      "inputs": [],
      "name": "Auth2",
      "outputs": [
        {
          "name": "",
          "type": "bool"
        }
      ],
      "payable": true,
      "stateMutability": "payable",
      "type": "function"
    },
    {
      "constant": false,
      "inputs": [],
      "name": "Auth3",
      "outputs": [
        {
          "name": "",
          "type": "bool"
        }
      ],
      "payable": true,
      "stateMutability": "payable",
      "type": "function"
    }
  ],
  "bytecode": "0x608060405234801561001057600080fd5b5061077f806100206000396000f3fe6080604052600436106100ba576000357c0100000000000000000000000000000000000000000000000000000000900463ffffffff16806315a80cac146100bf578063403bbbe4146100ee578063469327dd1461011d578063682b482a1461013f5780637fd92d2114610161578063baadce9014610183578063d090489d146101c9578063e01128c9146101eb578063ef5a8fb51461021a578063f87057b71461023c578063f87a5d74146106ba578063f9f842e7146106e9575b600080fd5b3480156100cb57600080fd5b506100d461070b565b604051808215151515815260200191505060405180910390f35b3480156100fa57600080fd5b50610103610710565b604051808215151515815260200191505060405180910390f35b610125610715565b604051808215151515815260200191505060405180910390f35b61014761071a565b604051808215151515815260200191505060405180910390f35b61016961071f565b604051808215151515815260200191505060405180910390f35b6101af6004803603602081101561019957600080fd5b8101908080359060200190929190505050610724565b604051808215151515815260200191505060405180910390f35b6101d161072b565b604051808215151515815260200191505060405180910390f35b3480156101f757600080fd5b50610200610730565b604051808215151515815260200191505060405180910390f35b610222610735565b604051808215151515815260200191505060405180910390f35b6106a0600480360361012081101561025357600080fd5b810190808035906020019064010000000081111561027057600080fd5b82018360208201111561028257600080fd5b803590602001918460018302840111640100000000831117156102a457600080fd5b91908080601f016020809104026020016040519081016040528093929190818152602001838380828437600081840152601f19601f8201169050808301925050505050505091929192908035906020019064010000000081111561030757600080fd5b82018360208201111561031957600080fd5b8035906020019184600183028401116401000000008311171561033b57600080fd5b91908080601f016020809104026020016040519081016040528093929190818152602001838380828437600081840152601f19601f8201169050808301925050505050505091929192908035906020019064010000000081111561039e57600080fd5b8201836020820111156103b057600080fd5b803590602001918460018302840111640100000000831117156103d257600080fd5b91908080601f016020809104026020016040519081016040528093929190818152602001838380828437600081840152601f19601f8201169050808301925050505050505091929192908035906020019064010000000081111561043557600080fd5b82018360208201111561044757600080fd5b8035906020019184600183028401116401000000008311171561046957600080fd5b91908080601f016020809104026020016040519081016040528093929190818152602001838380828437600081840152601f19601f820116905080830192505050505050509192919290803590602001906401000000008111156104cc57600080fd5b8201836020820111156104de57600080fd5b8035906020019184600183028401116401000000008311171561050057600080fd5b91908080601f016020809104026020016040519081016040528093929190818152602001838380828437600081840152601f19601f8201169050808301925050505050505091929192908035151590602001909291908035906020019064010000000081111561056f57600080fd5b82018360208201111561058157600080fd5b803590602001918460018302840111640100000000831117156105a357600080fd5b91908080601f016020809104026020016040519081016040528093929190818152602001838380828437600081840152601f19601f8201169050808301925050505050505091929192908035906020019064010000000081111561060657600080fd5b82018360208201111561061857600080fd5b8035906020019184600183028401116401000000008311171561063a57600080fd5b91908080601f016020809104026020016040519081016040528093929190818152602001838380828437600081840152601f19601f820116905080830192505050505050509192919290803567ffffffffffffffff16906020019092919050505061073a565b604051808215151515815260200191505060405180910390f35b3480156106c657600080fd5b506106cf610749565b604051808215151515815260200191505060405180910390f35b6106f161074e565b604051808215151515815260200191505060405180910390f35b600090565b600090565b600090565b600090565b600090565b6000919050565b600090565b600090565b600090565b60009998505050505050505050565b600090565b60009056fea165627a7a72305820a5ef0c566cfd05acd28dcd3c00378e6083fc319e7272af9213e2b28ae1fcc1d50029",
  "source": "pragma solidity ^0.5.0;\n\n// interface for Land\ncontract Land {\n    constructor (uint _l_id) public { }\n\n    function addLand() public payable returns (bool) { }\n\n    function registerLand(uint _id) public payable returns (bool) { }\n\n    function getPostedLand() public view returns(int){ }\n\n    function isVerfied() public pure returns (bool) { }\n    \n}\n\n\n// interface Client\ncontract Client {\n    //function\n    constructor() public { }\n\n    function addNewUser(string memory _c_id, string memory _c_pass,\n    string memory _c_cpass, string memory _pan,string memory _aadhar, \n    bool _caste, string memory _name, string memory _email, \n    uint64 _phno) public payable returns (bool){ }\n\n    function registerLand(uint _id) public payable returns (bool){ }\n\n    function sellLand() public payable returns (bool){ }\n\n    function buyLand() public payable returns (bool){ }\n\n    function checkLiable() public payable returns (bool){ }\n\n    function isClientVerified() private pure returns (bool){ }\n\n    // Upload Documents, changing it to true\n    function uploadDocd1() public pure returns (bool) { }\n\n    function uploadDocd2() public pure returns (bool) { }\n\n    function uploadDocd3() public pure returns (bool) { }\n\n    function uploadDocd4() public pure returns (bool) { }\n\n    //Checking the STEP wise Authentication\n\n    function Auth1() public payable returns (bool) { }\n\n    function Auth2() public payable returns (bool) { }\n\n    function Auth3() public payable returns (bool) { }\n\n}\n\n// contract Admin\ncontract Admin {\n       \n    string private a_id;\n    string private a_pass;\n    string private a_cpass;\n    string private code;\n    string private dept;\n\n    int64 private requestStatus;\n\n    //Mapping of admin\n    struct AdminDetail{\n        string name;\n        string email;\n        uint256 phno;\n    }\n\n    mapping(address => AdminDetail) AdminDetails;\n    address[] public AdminDetailAccounts;\n\n    function setAdminDetail(address _address, string memory _name, string memory _email, uint256 _phno) public {\n        AdminDetail memory _AdminDetail = AdminDetails[_address];\n\n        _AdminDetail.name = _name;\n        _AdminDetail.email = _email;\n        _AdminDetail.phno = _phno;\n    \n        AdminDetailAccounts.push(_address) -1;\n\n    } \n    \n    function getAdminDetail() view public returns (address[] memory){\n        return AdminDetailAccounts;\n    }\n\n    function getAdminDetails(address _address) view public returns (string memory, string memory, uint256){\n        return (AdminDetails[_address].name, AdminDetails[_address].email, AdminDetails[_address].phno); \n    }\n\n    function countAdminDetails() view public returns(uint){\n        return AdminDetailAccounts.length;\n    }\n\n    //End of Mapping of admin\n\n    //functions\n    function addNewAdmin(string memory _a_id, string memory _a_pass) public payable returns (bool){\n        a_id = _a_id;\n        a_pass = _a_pass;\n        return true;\n    }\n\n    function getTransaction() public payable returns (bool){\n        return true;\n    }\n\n    function isAdminVerified(string memory _code, string memory _a_id, string memory _a_pass) internal returns (bool){\n        if(stringsEqual(code, _code)) {   \n            addNewAdmin(_a_id,_a_pass);\n            return true;\n        }\n        else{\n            return false;\n        }\n    }\n\n    function stringsEqual(string memory a, string memory b) public view returns (bool) {\n        bytes memory a = bytes(a);\n        bytes memory b = bytes(b);\n\n        // Compare two strings quickly by length to try to avoid detailed loop comparison\n        if (a.length != b.length)\n            return false;\n\n        // Compare two strings in detail Bit-by-Bit\n        for (uint i = 0; i < a.length; i++)\n            if (a[i] != b[i])\n                return false;\n\n        // Byte values of string are the same\n        return true;\n    }    \n\n    function RegistryAuth() public payable returns (int){\n        if(checkRegistryAuth()) {\n            return 1;\n        }\n        else {\n            return 0;\n        }\n\n    }\n\n    function checkRegistryAuth() public payable returns (bool) {\n        return true;\n    }\n}",
  "sourcePath": "/home/hellbringer419/Desktop/Programs/BlockChainProgs/landcom_next_app/src/contracts/Admin.sol",
  "compiler": {
    "name": "solc",
    "version": "0.5.0+commit.1d4f565a.Emscripten.clang"
  },
  "schemaVersion": "3.0.2",
  "updatedAt": "2020-01-04T15:08:09.329Z",
  "devdoc": {
    "methods": {}
  },
  "userdoc": {
    "methods": {}
  }
}