{
  "contractName": "Land2",
  "abi": [
    {
      "inputs": [
        {
          "name": "_l_id",
          "type": "uint256"
        }
      ],
      "payable": false,
      "stateMutability": "nonpayable",
      "type": "constructor"
    },
    {
      "constant": false,
      "inputs": [],
      "name": "addLand",
      "outputs": [
        {
          "name": "",
          "type": "bool"
        }
      ],
      "payable": true,
      "stateMutability": "payable",
      "type": "function"
    },
    {
      "constant": false,
      "inputs": [
        {
          "name": "_id",
          "type": "uint256"
        }
      ],
      "name": "registerLand",
      "outputs": [
        {
          "name": "",
          "type": "bool"
        }
      ],
      "payable": true,
      "stateMutability": "payable",
      "type": "function"
    },
    {
      "constant": true,
      "inputs": [],
      "name": "getPostedLand",
      "outputs": [
        {
          "name": "",
          "type": "int256"
        }
      ],
      "payable": false,
      "stateMutability": "view",
      "type": "function"
    },
    {
      "constant": true,
      "inputs": [],
      "name": "isVerfied",
      "outputs": [
        {
          "name": "",
          "type": "bool"
        }
      ],
      "payable": false,
      "stateMutability": "pure",
      "type": "function"
    }
  ],
  "bytecode": "0x608060405234801561001057600080fd5b506040516020806101bc8339810180604052602081101561003057600080fd5b81019080805190602001909291905050505061016b806100516000396000f3fe608060405260043610610062576000357c0100000000000000000000000000000000000000000000000000000000900463ffffffff1680632c629c12146100675780636c314a4114610092578063ae11cf73146100b4578063baadce90146100e3575b600080fd5b34801561007357600080fd5b5061007c610129565b6040518082815260200191505060405180910390f35b61009a61012e565b604051808215151515815260200191505060405180910390f35b3480156100c057600080fd5b506100c9610133565b604051808215151515815260200191505060405180910390f35b61010f600480360360208110156100f957600080fd5b8101908080359060200190929190505050610138565b604051808215151515815260200191505060405180910390f35b600090565b600090565b600090565b600091905056fea165627a7a7230582089d8dc0c83fca67f5a2468c33972c005c22e51739297758f6c2d597aa93aeec90029",
  "source": "pragma solidity ^0.5.0;\n\n// interface for Land\ncontract Land2 {\n    constructor (uint _l_id) public { }\n\n    function addLand() public payable returns (bool) { }\n\n    function registerLand(uint _id) public payable returns (bool) { }\n\n    function getPostedLand() public view returns(int){ }\n\n    function isVerfied() public pure returns (bool) { }\n    \n}\n\n// Client contract\n contract Client {\n//     struct Land {\n//         uint id;\n//         uint areaInSq_mm;\n//         int priceInPaise;\n//         uint256 latitudeInNano_m;\n//         uint256 longitudeInNano_m;\n//         bool isSelfOwned;\n//         bool isFullyPayed;\n//     // LandType private types;\n//         int postedLand;\n\n//         // bool private isVerified;\n//         string[] _propId;\n//         // Address private addresses;\n//         address owner;\n//     }\n\n struct ClientDetails{\n     string name;\n     string email;\n     uint64 phno;\n }\n\n//members\n    string private c_id;\n    string private c_pass;\n    string private pan;\n    string private aadhar;\n    bool private caste;\n    bool private isLiable;\n    \n   // Land private ob;\n\n    ClientDetails private cd;\n\n//Upload Documents\n    bool private d1 = false;\n    bool private d2 = false;\n    bool private d3 = false;\n    bool private d4 = false;\n\n//For Authentication Steps\n    bool private a1 = false;\n    bool private a2 = false;\n    bool private a3 = false;\n\n    //function\n    constructor() public {\n\n    }\n\n    function addNewUser(string memory _c_id, string memory _c_pass,\n    string memory _c_cpass, string memory _pan,string memory _aadhar, \n    bool _caste, string memory _name, string memory _email, \n    uint64 _phno) public payable returns (bool){\n    \n        c_id = _c_id;\n        c_pass = _c_pass;\n        aadhar = _aadhar;\n        caste = _caste;\n        cd = ClientDetails(_name, _email, _phno);\n\n        return true;\n    }\n\n    function registerLand(uint _id) public payable returns (bool){\n        if((d1==true)&&(d2==true)&&(d3==true)&&(d4==true))\n        {\n            // return ob.registerLand(_id);\n            return true;\n        }\n        else{\n            return false;\n        }\n        \n    }\n\n    function sellLand() public payable returns (bool){\n        // if(ob.getPostedLand() > 0) {\n        if(true) {\n            return true;\n        }\n        else {\n            return false;\n        }\n    }\n\n    function buyLand() public payable returns (bool){\n        if(this.checkLiable()) {\n            return true;\n        }\n        else {\n            return false;\n        }\n    }\n\n    // function checkLiable() public payable returns (bool){\n    //     if(__Neha__) {\n    //         return true;\n    //     }\n    //     else {\n    //         return false;\n    //     }\n    // }\n    function checkLiable() public payable returns (bool){\n            return true;\n    }\n\n    function isClientVerified() private view returns (bool){\n        if((a1==true)&&(a1==true)&&(a1==true)) {\n         return true;\n        }\n        else {\n         return false;\n        }\n    }\n\n    // Upload Documents, changing it to true\n    function uploadDocd1() public payable {\n        d1 = true;\n    }\n    function uploadDocd2() public payable {\n        d2 = true;\n    }\n    function uploadDocd3() public payable {\n        d3 = true;\n    }\n    function uploadDocd4() public payable {\n        d4 = true;\n    }\n\n    //Checking the STEP wise Authentication\n\n    function Auth1() public payable{\n        a1 =  true;\n    }\n    function Auth2() public payable{\n        a2 =  true;\n    }\n    function Auth3() public payable{\n        a3 =  true;\n    }\n\n}",
  "sourcePath": "/home/hellbringer419/Desktop/Programs/BlockChainProgs/landcom_next_app/src/contracts/Client.sol",
  "compiler": {
    "name": "solc",
    "version": "0.5.0+commit.1d4f565a.Emscripten.clang"
  },
  "schemaVersion": "3.0.2",
  "updatedAt": "2020-01-04T15:07:44.962Z",
  "devdoc": {
    "methods": {}
  },
  "userdoc": {
    "methods": {}
  }
}