{
  "contractName": "Land",
  "abi": [
    {
      "constant": true,
      "inputs": [
        {
          "name": "",
          "type": "uint256"
        }
      ],
      "name": "AreaAccounts",
      "outputs": [
        {
          "name": "",
          "type": "address"
        }
      ],
      "payable": false,
      "stateMutability": "view",
      "type": "function"
    },
    {
      "constant": true,
      "inputs": [],
      "name": "id",
      "outputs": [
        {
          "name": "",
          "type": "uint256"
        }
      ],
      "payable": false,
      "stateMutability": "view",
      "type": "function"
    },
    {
      "constant": true,
      "inputs": [],
      "name": "priceInPaise",
      "outputs": [
        {
          "name": "",
          "type": "int256"
        }
      ],
      "payable": false,
      "stateMutability": "view",
      "type": "function"
    },
    {
      "constant": true,
      "inputs": [],
      "name": "getArea",
      "outputs": [
        {
          "name": "",
          "type": "address[]"
        }
      ],
      "payable": false,
      "stateMutability": "view",
      "type": "function"
    },
    {
      "constant": true,
      "inputs": [],
      "name": "countAreas",
      "outputs": [
        {
          "name": "",
          "type": "uint256"
        }
      ],
      "payable": false,
      "stateMutability": "view",
      "type": "function"
    },
    {
      "constant": false,
      "inputs": [
        {
          "name": "_id",
          "type": "uint256"
        }
      ],
      "name": "registerLand",
      "outputs": [
        {
          "name": "",
          "type": "bool"
        }
      ],
      "payable": true,
      "stateMutability": "payable",
      "type": "function"
    },
    {
      "constant": true,
      "inputs": [],
      "name": "getPostedLand",
      "outputs": [
        {
          "name": "",
          "type": "int256"
        }
      ],
      "payable": false,
      "stateMutability": "view",
      "type": "function"
    },
    {
      "constant": true,
      "inputs": [],
      "name": "isVerfied",
      "outputs": [
        {
          "name": "",
          "type": "bool"
        }
      ],
      "payable": false,
      "stateMutability": "pure",
      "type": "function"
    }
  ],
  "bytecode": "0x6080604052600060065534801561001557600080fd5b5061041e806100256000396000f3fe60806040526004361061008e576000357c0100000000000000000000000000000000000000000000000000000000900463ffffffff1680632c629c121461009357806330702819146100be57806369010cf7146100e957806385be3e6214610164578063ae11cf73146101d0578063af640d0f146101ff578063baadce901461022a578063da0b580f14610270575b600080fd5b34801561009f57600080fd5b506100a861029b565b6040518082815260200191505060405180910390f35b3480156100ca57600080fd5b506100d36102a5565b6040518082815260200191505060405180910390f35b3480156100f557600080fd5b506101226004803603602081101561010c57600080fd5b81019080803590602001909291905050506102b2565b604051808273ffffffffffffffffffffffffffffffffffffffff1673ffffffffffffffffffffffffffffffffffffffff16815260200191505060405180910390f35b34801561017057600080fd5b506101796102f0565b6040518080602001828103825283818151815260200191508051906020019060200280838360005b838110156101bc5780820151818401526020810190506101a1565b505050509050019250505060405180910390f35b3480156101dc57600080fd5b506101e561037e565b604051808215151515815260200191505060405180910390f35b34801561020b57600080fd5b50610214610387565b6040518082815260200191505060405180910390f35b6102566004803603602081101561024057600080fd5b810190808035906020019092919050505061038d565b604051808215151515815260200191505060405180910390f35b34801561027c57600080fd5b506102856103ec565b6040518082815260200191505060405180910390f35b6000600654905090565b6000600d80549050905090565b600d818154811015156102c157fe5b906000526020600020016000915054906101000a900473ffffffffffffffffffffffffffffffffffffffff1681565b6060600d80548060200260200160405190810160405280929190818152602001828054801561037457602002820191906000526020600020905b8160009054906101000a900473ffffffffffffffffffffffffffffffffffffffff1673ffffffffffffffffffffffffffffffffffffffff168152602001906001019080831161032a575b5050505050905090565b60006001905090565b60005481565b60008160008190555033600b60006101000a81548173ffffffffffffffffffffffffffffffffffffffff021916908373ffffffffffffffffffffffffffffffffffffffff16021790555060016006540160068190555060019050919050565b6002548156fea165627a7a72305820fec9d890f7213b434759ae389f8a4da1086e0071649fe2d1ec4c250fc9d9e0c30029",
  "source": "pragma solidity ^0.5.0;\n\ncontract Land {\n    // user-def types\n    // enum LandType {\n    //     disputed, industrial, agriculture, residential, non_transferable\n    // }\n\n    // members\n    uint public id;\n    uint private areaInSq_mm;\n    int public priceInPaise;\n    uint256 private latitudeInNano_m;\n    uint256 private longitudeInNano_m;\n    bool private isSelfOwned;\n    bool private isFullyPayed;\n   // LandType private types;\n    int private postedLand = 0;\n\n    // bool private isVerified;\n    string[] private _propId;\n    Area private addresses;\n    address private owner;\n\n    //mapping(uint => Land) public LandMap;\n    //Mapping of admin\n   struct Area {\n        uint pin;\n        string district; \n        string state;\n    }\n\n    mapping(address => Area) Areas;\n    address[] public AreaAccounts;\n\n    // function setArea(address _address, uint _pin, string memory _district, string memory _state) public {\n    //     Area memory _Area = Area[_address];\n\n    //     _Area.pin = _pin;\n    //     _Area.district = _district;\n    //     _Area.state = _state;\n    \n    //     Area.push(_address) -1;\n\n    // } \n    \n    function getArea() view public returns (address[] memory){\n        return AreaAccounts;\n    }\n\n    // function getAreas(address _address) view public returns ( uint256, string memory, string memory){\n    //     return (Areas[_address].pin, Area[_address].district, Area[_address].state); \n    // }\n\n    function countAreas() view public returns(uint){\n        return AreaAccounts.length;\n    }\n\n    //End of Mapping of admin\n\n    // map all transcations\n\n    function registerLand(uint _id) public payable returns (bool) {\n        id = _id;\n        owner = msg.sender;\n        postedLand = postedLand + 1;\n        return true;\n    }\n\n    function getPostedLand() public view returns(int){\n        return postedLand;\n    }\n\n    // future scope\n    function isVerfied() public pure returns (bool) {\n        return true;\n    }\n    \n}",
  "sourcePath": "/home/hellbringer419/Desktop/Programs/BlockChainProgs/landcom_next_app/src/contracts/Land.sol",
  "compiler": {
    "name": "solc",
    "version": "0.5.0+commit.1d4f565a.Emscripten.clang"
  },
  "schemaVersion": "3.0.2",
  "updatedAt": "2020-01-04T15:08:09.326Z",
  "devdoc": {
    "methods": {}
  },
  "userdoc": {
    "methods": {}
  }
}