{
  "contractName": "SuperAdmin",
  "abi": [
    {
      "constant": false,
      "inputs": [
        {
          "name": "_sp_id",
          "type": "string"
        },
        {
          "name": "_sp_pass",
          "type": "string"
        }
      ],
      "name": "addNewAdmin",
      "outputs": [
        {
          "name": "",
          "type": "bool"
        }
      ],
      "payable": true,
      "stateMutability": "payable",
      "type": "function"
    },
    {
      "constant": false,
      "inputs": [],
      "name": "getTransaction",
      "outputs": [
        {
          "name": "",
          "type": "bool"
        }
      ],
      "payable": true,
      "stateMutability": "payable",
      "type": "function"
    },
    {
      "constant": false,
      "inputs": [],
      "name": "finalRegistryAuth",
      "outputs": [
        {
          "name": "",
          "type": "bool"
        }
      ],
      "payable": true,
      "stateMutability": "payable",
      "type": "function"
    }
  ],
  "bytecode": "0x608060405234801561001057600080fd5b50610323806100206000396000f3fe608060405260043610610057576000357c0100000000000000000000000000000000000000000000000000000000900463ffffffff16806359705f811461005c578063652e735f1461007e57806367dd90ed146100a0575b600080fd5b61006461020a565b604051808215151515815260200191505060405180910390f35b610086610213565b604051808215151515815260200191505060405180910390f35b6101f0600480360360408110156100b657600080fd5b81019080803590602001906401000000008111156100d357600080fd5b8201836020820111156100e557600080fd5b8035906020019184600183028401116401000000008311171561010757600080fd5b91908080601f016020809104026020016040519081016040528093929190818152602001838380828437600081840152601f19601f8201169050808301925050505050505091929192908035906020019064010000000081111561016a57600080fd5b82018360208201111561017c57600080fd5b8035906020019184600183028401116401000000008311171561019e57600080fd5b91908080601f016020809104026020016040519081016040528093929190818152602001838380828437600081840152601f19601f82011690508083019250505050505050919291929050505061021c565b604051808215151515815260200191505060405180910390f35b60006001905090565b60006001905090565b60008260009080519060200190610234929190610252565b50816001908051906020019061024b929190610252565b5092915050565b828054600181600116156101000203166002900490600052602060002090601f016020900481019282601f1061029357805160ff19168380011785556102c1565b828001600101855582156102c1579182015b828111156102c05782518255916020019190600101906102a5565b5b5090506102ce91906102d2565b5090565b6102f491905b808211156102f05760008160009055506001016102d8565b5090565b9056fea165627a7a72305820f526613c08779d8796dbcbe97b8e5242630a00247035d9f4e48672aa810be14f0029",
  "source": "pragma solidity ^0.5.0;\n\n// interface for Land\ncontract Land {\n    constructor (uint _l_id) public { }\n\n    function addLand() public payable returns (bool) { }\n\n    function registerLand(uint _id) public payable returns (bool) { }\n\n    function getPostedLand() public view returns(int){ }\n\n    function isVerfied() public pure returns (bool) { }\n    \n}\n\n\n// interface Client\ncontract Client {\n    //function\n    constructor() public { }\n\n    function addNewUser(string memory _c_id, string memory _c_pass,\n    string memory _c_cpass, string memory _pan,string memory _aadhar, \n    bool _caste, string memory _name, string memory _email, \n    uint64 _phno) public payable returns (bool){ }\n\n    function registerLand(uint _id) public payable returns (bool){ }\n\n    function sellLand() public payable returns (bool){ }\n\n    function buyLand() public payable returns (bool){ }\n\n    function checkLiable() public payable returns (bool){ }\n\n    function isClientVerified() private pure returns (bool){ }\n\n    // Upload Documents, changing it to true\n    function uploadDocd1() public pure returns (bool) { }\n\n    function uploadDocd2() public pure returns (bool) { }\n\n    function uploadDocd3() public pure returns (bool) { }\n\n    function uploadDocd4() public pure returns (bool) { }\n\n    //Checking the STEP wise Authentication\n\n    function Auth1() public payable returns (bool) { }\n\n    function Auth2() public payable returns (bool) { }\n\n    function Auth3() public payable returns (bool) { }\n\n}\n\n// interface Admin\ncontract Admin {\n\n    function addNewAdmin(string memory _a_id, string memory _a_pass) public payable returns (bool){ }\n\n    function getTransaction() public payable returns (bool){ }\n\n    function isAdminVerified(string memory _code, string memory _a_id, string memory _a_pass) internal returns (bool){ }\n\n    function stringsEqual(string memory a, string memory b) public view returns (bool) { }\n\n    function RegistryAuth() public payable returns (int) { }\n\n    function checkRegistryAuth() public payable returns (bool) { }\n\n}\n\ncontract SuperAdmin {\n    \n    struct SuperAdminDetails{\n        string name;\n        string email;\n        uint64 phno;\n    }\n    \n    string sp_id;\n    string sp_pass;\n\n    //functions\n    function addNewAdmin(string memory _sp_id, string memory _sp_pass) public payable returns (bool){\n        sp_id = _sp_id;\n        sp_pass = _sp_pass;\n    }\n\n    //Status of the Blockchain (All the recorded land details) in the chain\n    function getTransaction() public payable returns (bool){\n        return true;\n    }\n\n    function isSuperSAdminVerified() private pure returns (bool){\n        return true;\n    }\n\n    function finalRegistryAuth() public payable returns (bool) {\n        return true;\n    }\n\n}",
  "sourcePath": "/home/hellbringer419/Desktop/Programs/BlockChainProgs/landcom_next_app/src/contracts/SuperAdmin.sol",
  "compiler": {
    "name": "solc",
    "version": "0.5.0+commit.1d4f565a.Emscripten.clang"
  },
  "schemaVersion": "3.0.2",
  "updatedAt": "2020-01-04T15:07:44.963Z",
  "devdoc": {
    "methods": {}
  },
  "userdoc": {
    "methods": {}
  }
}